{
  "contractName": "RKVesting",
  "abi": [
    {
      "inputs": [
        {
          "internalType": "address",
          "name": "token_",
          "type": "address"
        }
      ],
      "stateMutability": "nonpayable",
      "type": "constructor"
    },
    {
      "anonymous": false,
      "inputs": [
        {
          "indexed": true,
          "internalType": "address",
          "name": "previousOwner",
          "type": "address"
        },
        {
          "indexed": true,
          "internalType": "address",
          "name": "newOwner",
          "type": "address"
        }
      ],
      "name": "OwnershipTransferred",
      "type": "event"
    },
    {
      "anonymous": false,
      "inputs": [
        {
          "indexed": false,
          "internalType": "uint256",
          "name": "amount",
          "type": "uint256"
        }
      ],
      "name": "Released",
      "type": "event"
    },
    {
      "anonymous": false,
      "inputs": [],
      "name": "Revoked",
      "type": "event"
    },
    {
      "stateMutability": "payable",
      "type": "fallback"
    },
    {
      "inputs": [],
      "name": "owner",
      "outputs": [
        {
          "internalType": "address",
          "name": "",
          "type": "address"
        }
      ],
      "stateMutability": "view",
      "type": "function"
    },
    {
      "inputs": [],
      "name": "renounceOwnership",
      "outputs": [],
      "stateMutability": "nonpayable",
      "type": "function"
    },
    {
      "inputs": [
        {
          "internalType": "address",
          "name": "newOwner",
          "type": "address"
        }
      ],
      "name": "transferOwnership",
      "outputs": [],
      "stateMutability": "nonpayable",
      "type": "function"
    },
    {
      "stateMutability": "payable",
      "type": "receive"
    },
    {
      "inputs": [
        {
          "internalType": "address",
          "name": "_beneficiary",
          "type": "address"
        }
      ],
      "name": "getVestingSchedulesCountByBeneficiary",
      "outputs": [
        {
          "internalType": "uint256",
          "name": "",
          "type": "uint256"
        }
      ],
      "stateMutability": "view",
      "type": "function"
    },
    {
      "inputs": [
        {
          "internalType": "uint256",
          "name": "index",
          "type": "uint256"
        }
      ],
      "name": "getVestingIdAtIndex",
      "outputs": [
        {
          "internalType": "bytes32",
          "name": "",
          "type": "bytes32"
        }
      ],
      "stateMutability": "view",
      "type": "function"
    },
    {
      "inputs": [
        {
          "internalType": "address",
          "name": "holder",
          "type": "address"
        },
        {
          "internalType": "uint256",
          "name": "index",
          "type": "uint256"
        }
      ],
      "name": "getVestingScheduleByAddressAndIndex",
      "outputs": [
        {
          "components": [
            {
              "internalType": "bool",
              "name": "initialized",
              "type": "bool"
            },
            {
              "internalType": "address",
              "name": "beneficiary",
              "type": "address"
            },
            {
              "internalType": "uint256",
              "name": "cliff",
              "type": "uint256"
            },
            {
              "internalType": "uint256",
              "name": "start",
              "type": "uint256"
            },
            {
              "internalType": "uint256",
              "name": "duration",
              "type": "uint256"
            },
            {
              "internalType": "uint256",
              "name": "slicePeriodSeconds",
              "type": "uint256"
            },
            {
              "internalType": "bool",
              "name": "revocable",
              "type": "bool"
            },
            {
              "internalType": "uint256",
              "name": "amountTotal",
              "type": "uint256"
            },
            {
              "internalType": "uint256",
              "name": "released",
              "type": "uint256"
            },
            {
              "internalType": "bool",
              "name": "revoked",
              "type": "bool"
            }
          ],
          "internalType": "struct RKVesting.VestingSchedule",
          "name": "",
          "type": "tuple"
        }
      ],
      "stateMutability": "view",
      "type": "function"
    },
    {
      "inputs": [],
      "name": "getVestingSchedulesTotalAmount",
      "outputs": [
        {
          "internalType": "uint256",
          "name": "",
          "type": "uint256"
        }
      ],
      "stateMutability": "view",
      "type": "function"
    },
    {
      "inputs": [],
      "name": "getToken",
      "outputs": [
        {
          "internalType": "address",
          "name": "",
          "type": "address"
        }
      ],
      "stateMutability": "view",
      "type": "function"
    },
    {
      "inputs": [
        {
          "internalType": "address",
          "name": "_beneficiary",
          "type": "address"
        },
        {
          "internalType": "uint256",
          "name": "_start",
          "type": "uint256"
        },
        {
          "internalType": "uint256",
          "name": "_cliff",
          "type": "uint256"
        },
        {
          "internalType": "uint256",
          "name": "_duration",
          "type": "uint256"
        },
        {
          "internalType": "uint256",
          "name": "_slicePeriodSeconds",
          "type": "uint256"
        },
        {
          "internalType": "bool",
          "name": "_revocable",
          "type": "bool"
        },
        {
          "internalType": "uint256",
          "name": "_amount",
          "type": "uint256"
        }
      ],
      "name": "createVestingSchedule",
      "outputs": [],
      "stateMutability": "nonpayable",
      "type": "function"
    },
    {
      "inputs": [
        {
          "internalType": "bytes32",
          "name": "vestingScheduleId",
          "type": "bytes32"
        }
      ],
      "name": "revoke",
      "outputs": [],
      "stateMutability": "nonpayable",
      "type": "function"
    },
    {
      "inputs": [
        {
          "internalType": "uint256",
          "name": "amount",
          "type": "uint256"
        }
      ],
      "name": "withdraw",
      "outputs": [],
      "stateMutability": "nonpayable",
      "type": "function"
    },
    {
      "inputs": [
        {
          "internalType": "bytes32",
          "name": "vestingScheduleId",
          "type": "bytes32"
        },
        {
          "internalType": "uint256",
          "name": "amount",
          "type": "uint256"
        }
      ],
      "name": "release",
      "outputs": [],
      "stateMutability": "nonpayable",
      "type": "function"
    },
    {
      "inputs": [],
      "name": "getVestingSchedulesCount",
      "outputs": [
        {
          "internalType": "uint256",
          "name": "",
          "type": "uint256"
        }
      ],
      "stateMutability": "view",
      "type": "function"
    },
    {
      "inputs": [
        {
          "internalType": "bytes32",
          "name": "vestingScheduleId",
          "type": "bytes32"
        }
      ],
      "name": "computeReleasableAmount",
      "outputs": [
        {
          "internalType": "uint256",
          "name": "",
          "type": "uint256"
        }
      ],
      "stateMutability": "view",
      "type": "function"
    },
    {
      "inputs": [
        {
          "internalType": "bytes32",
          "name": "vestingScheduleId",
          "type": "bytes32"
        }
      ],
      "name": "getVestingSchedule",
      "outputs": [
        {
          "components": [
            {
              "internalType": "bool",
              "name": "initialized",
              "type": "bool"
            },
            {
              "internalType": "address",
              "name": "beneficiary",
              "type": "address"
            },
            {
              "internalType": "uint256",
              "name": "cliff",
              "type": "uint256"
            },
            {
              "internalType": "uint256",
              "name": "start",
              "type": "uint256"
            },
            {
              "internalType": "uint256",
              "name": "duration",
              "type": "uint256"
            },
            {
              "internalType": "uint256",
              "name": "slicePeriodSeconds",
              "type": "uint256"
            },
            {
              "internalType": "bool",
              "name": "revocable",
              "type": "bool"
            },
            {
              "internalType": "uint256",
              "name": "amountTotal",
              "type": "uint256"
            },
            {
              "internalType": "uint256",
              "name": "released",
              "type": "uint256"
            },
            {
              "internalType": "bool",
              "name": "revoked",
              "type": "bool"
            }
          ],
          "internalType": "struct RKVesting.VestingSchedule",
          "name": "",
          "type": "tuple"
        }
      ],
      "stateMutability": "view",
      "type": "function"
    },
    {
      "inputs": [],
      "name": "getWithdrawableAmount",
      "outputs": [
        {
          "internalType": "uint256",
          "name": "",
          "type": "uint256"
        }
      ],
      "stateMutability": "view",
      "type": "function"
    },
    {
      "inputs": [
        {
          "internalType": "address",
          "name": "holder",
          "type": "address"
        }
      ],
      "name": "computeNextVestingScheduleIdForHolder",
      "outputs": [
        {
          "internalType": "bytes32",
          "name": "",
          "type": "bytes32"
        }
      ],
      "stateMutability": "view",
      "type": "function"
    },
    {
      "inputs": [
        {
          "internalType": "address",
          "name": "holder",
          "type": "address"
        }
      ],
      "name": "getLastVestingScheduleForHolder",
      "outputs": [
        {
          "components": [
            {
              "internalType": "bool",
              "name": "initialized",
              "type": "bool"
            },
            {
              "internalType": "address",
              "name": "beneficiary",
              "type": "address"
            },
            {
              "internalType": "uint256",
              "name": "cliff",
              "type": "uint256"
            },
            {
              "internalType": "uint256",
              "name": "start",
              "type": "uint256"
            },
            {
              "internalType": "uint256",
              "name": "duration",
              "type": "uint256"
            },
            {
              "internalType": "uint256",
              "name": "slicePeriodSeconds",
              "type": "uint256"
            },
            {
              "internalType": "bool",
              "name": "revocable",
              "type": "bool"
            },
            {
              "internalType": "uint256",
              "name": "amountTotal",
              "type": "uint256"
            },
            {
              "internalType": "uint256",
              "name": "released",
              "type": "uint256"
            },
            {
              "internalType": "bool",
              "name": "revoked",
              "type": "bool"
            }
          ],
          "internalType": "struct RKVesting.VestingSchedule",
          "name": "",
          "type": "tuple"
        }
      ],
      "stateMutability": "view",
      "type": "function"
    },
    {
      "inputs": [
        {
          "internalType": "address",
          "name": "holder",
          "type": "address"
        },
        {
          "internalType": "uint256",
          "name": "index",
          "type": "uint256"
        }
      ],
      "name": "computeVestingScheduleIdForAddressAndIndex",
      "outputs": [
        {
          "internalType": "bytes32",
          "name": "",
          "type": "bytes32"
        }
      ],
      "stateMutability": "pure",
      "type": "function"
    }
  ],
  "bytecode": "0x60a06040523480156200001157600080fd5b5060405162001afd38038062001afd8339810160408190526200003491620000b9565b6200003f3362000069565b600180556001600160a01b0381166200005757600080fd5b6001600160a01b0316608052620000eb565b600080546001600160a01b038381166001600160a01b0319831681178455604051919092169283917f8be0079c531659141344cd1fd0a4f28419497f9722a3daafe3b4186f6b6457e09190a35050565b600060208284031215620000cc57600080fd5b81516001600160a01b0381168114620000e457600080fd5b9392505050565b6080516119e16200011c600039600081816101680152818161092001528181610be60152610d8e01526119e16000f3fe60806040526004361061010c5760003560e01c80638af104da1161009a578063ea1bb3d511610061578063ea1bb3d514610300578063f2fde38b14610320578063f51321d714610340578063f7c469f014610360578063f9079b371461038057005b80638af104da1461026d5780638da5cb5b1461028d57806390be10cc146102ab5780639ef346b4146102c0578063b75c7dc6146102e057005b806348deb471116100de57806348deb471146101c05780635a7bb69a146101d557806366afd8ef1461020b578063715018a61461022b5780637e913dc61461024057005b8063130836171461011557806317e289e91461013957806321df0da7146101595780632e1a7d4d146101a057005b3661011357005b005b34801561012157600080fd5b506002545b6040519081526020015b60405180910390f35b34801561014557600080fd5b506101136101543660046116b3565b6103a0565b34801561016557600080fd5b507f00000000000000000000000000000000000000000000000000000000000000005b6040516001600160a01b039091168152602001610130565b3480156101ac57600080fd5b506101136101bb36600461171a565b610812565b3480156101cc57600080fd5b50600454610126565b3480156101e157600080fd5b506101266101f0366004611733565b6001600160a01b031660009081526005602052604090205490565b34801561021757600080fd5b5061011361022636600461174e565b61094a565b34801561023757600080fd5b50610113610c1b565b34801561024c57600080fd5b5061026061025b366004611733565b610c51565b6040516101309190611770565b34801561027957600080fd5b506101266102883660046117fb565b610d29565b34801561029957600080fd5b506000546001600160a01b0316610188565b3480156102b757600080fd5b50610126610d70565b3480156102cc57600080fd5b506102606102db36600461171a565b610e10565b3480156102ec57600080fd5b506101136102fb36600461171a565b610eb7565b34801561030c57600080fd5b5061012661031b36600461171a565b611079565b34801561032c57600080fd5b5061011361033b366004611733565b611163565b34801561034c57600080fd5b5061026061035b3660046117fb565b6111fb565b34801561036c57600080fd5b5061012661037b366004611733565b611217565b34801561038c57600080fd5b5061012661039b36600461171a565b611241565b6000546001600160a01b031633146103d35760405162461bcd60e51b81526004016103ca90611825565b60405180910390fd5b80306001600160a01b03166390be10cc6040518163ffffffff1660e01b8152600401602060405180830381865afa158015610412573d6000803e3d6000fd5b505050506040513d601f19601f82011682018060405250810190610436919061185a565b10156104bd5760405162461bcd60e51b815260206004820152604a60248201527f546f6b656e56657374696e673a2063616e6e6f7420637265617465207665737460448201527f696e67207363686564756c652062656361757365206e6f742073756666696369606482015269656e7420746f6b656e7360b01b608482015260a4016103ca565b600084116105185760405162461bcd60e51b815260206004820152602260248201527f546f6b656e56657374696e673a206475726174696f6e206d757374206265203e604482015261020360f41b60648201526084016103ca565b600081116105685760405162461bcd60e51b815260206004820181905260248201527f546f6b656e56657374696e673a20616d6f756e74206d757374206265203e203060448201526064016103ca565b60018310156105cf5760405162461bcd60e51b815260206004820152602d60248201527f546f6b656e56657374696e673a20736c696365506572696f645365636f6e647360448201526c206d757374206265203e3d203160981b60648201526084016103ca565b604051630f7c469f60e41b81526001600160a01b0388166004820152600090309063f7c469f090602401602060405180830381865afa158015610616573d6000803e3d6000fd5b505050506040513d601f19601f8201168201806040525081019061063a919061185a565b905060006106488789611889565b90506040518061014001604052806001151581526020018a6001600160a01b03168152602001828152602001898152602001878152602001868152602001851515815260200184815260200160008152602001600015158152506003600084815260200190815260200160002060008201518160000160006101000a81548160ff02191690831515021790555060208201518160000160016101000a8154816001600160a01b0302191690836001600160a01b0316021790555060408201518160010155606082015181600201556080820151816003015560a0820151816004015560c08201518160050160006101000a81548160ff02191690831515021790555060e0820151816006015561010082015181600701556101208201518160080160006101000a81548160ff021916908315150217905550905050826004546107919190611889565b6004556002805460018181019092557f405787fa12a823e0f2b7631cc41b3ba8828b3321ca811111fa75cd3aa3bb5ace018390556001600160a01b038a16600090815260056020526040902054906107ea908290611889565b6001600160a01b03909a16600090815260056020526040902099909955505050505050505050565b6000546001600160a01b0316331461083c5760405162461bcd60e51b81526004016103ca90611825565b80306001600160a01b03166390be10cc6040518163ffffffff1660e01b8152600401602060405180830381865afa15801561087b573d6000803e3d6000fd5b505050506040513d601f19601f8201168201806040525081019061089f919061185a565b10156109015760405162461bcd60e51b815260206004820152602b60248201527f546f6b656e56657374696e673a206e6f7420656e6f756768207769746864726160448201526a7761626c652066756e647360a81b60648201526084016103ca565b6109476109166000546001600160a01b031690565b6001600160a01b037f00000000000000000000000000000000000000000000000000000000000000001690836112c9565b50565b60026001540361099c5760405162461bcd60e51b815260206004820152601f60248201527f5265656e7472616e637947756172643a207265656e7472616e742063616c6c0060448201526064016103ca565b60026001908155600083815260036020526040902054839160ff9091161515146109c557600080fd5b60008181526003602052604090206008015460ff16156109e457600080fd5b6000838152600360205260408120805491549091336001600160a01b03610100909204821681149291909116148180610a1a5750805b610a975760405162461bcd60e51b815260206004820152604260248201527f546f6b656e56657374696e673a206f6e6c792062656e6566696369617279206160448201527f6e64206f776e65722063616e2072656c656173652076657374656420746f6b656064820152616e7360f01b608482015260a4016103ca565b6040805161014081018252845460ff808216151583526001600160a01b03610100928390041660208401526001870154938301939093526002860154606083015260038601546080830152600486015460a083015260058601548316151560c0830152600686015460e083015260078601549082015260088501549091161515610120820152600090610b2990611320565b905085811015610ba15760405162461bcd60e51b815260206004820152603d60248201527f546f6b656e56657374696e673a2063616e6e6f742072656c6561736520746f6b60448201527f656e732c206e6f7420656e6f7567682076657374656420746f6b656e7300000060648201526084016103ca565b858460070154610bb19190611889565b600785015583546004546101009091046001600160a01b031690610bd69088906118a1565b600455610c0d6001600160a01b037f00000000000000000000000000000000000000000000000000000000000000001682896112c9565b505060018055505050505050565b6000546001600160a01b03163314610c455760405162461bcd60e51b81526004016103ca90611825565b610c4f60006113f1565b565b610c59611627565b6001600160a01b03821660009081526005602052604081205460039190610c88908590610288906001906118a1565b81526020808201929092526040908101600020815161014081018352815460ff808216151583526001600160a01b036101009283900416958301959095526001830154938201939093526002820154606082015260038201546080820152600482015460a082015260058201548416151560c0820152600682015460e082015260078201549281019290925260080154909116151561012082015292915050565b6040516bffffffffffffffffffffffff19606084901b1660208201526034810182905260009060540160405160208183030381529060405280519060200120905092915050565b600480546040516370a0823160e01b815230928101929092526000917f00000000000000000000000000000000000000000000000000000000000000006001600160a01b0316906370a0823190602401602060405180830381865afa158015610ddd573d6000803e3d6000fd5b505050506040513d601f19601f82011682018060405250810190610e01919061185a565b610e0b91906118a1565b905090565b610e18611627565b50600090815260036020818152604092839020835161014081018552815460ff808216151583526001600160a01b0361010092839004169483019490945260018301549582019590955260028201546060820152928101546080840152600481015460a084015260058101548216151560c0840152600681015460e0840152600781015493830193909352600890920154909116151561012082015290565b6000546001600160a01b03163314610ee15760405162461bcd60e51b81526004016103ca90611825565b600081815260036020526040902054819060ff161515600114610f0357600080fd5b60008181526003602052604090206008015460ff1615610f2257600080fd5b6000828152600360205260409020600581015460ff161515600114610f985760405162461bcd60e51b815260206004820152602660248201527f546f6b656e56657374696e673a2076657374696e67206973206e6f74207265766044820152656f6361626c6560d01b60648201526084016103ca565b6040805161014081018252825460ff808216151583526001600160a01b03610100928390041660208401526001850154938301939093526002840154606083015260038401546080830152600484015460a083015260058401548316151560c0830152600684015460e08301526007840154908201526008830154909116151561012082015260009061102a90611320565b9050801561103c5761103c848261094a565b60008260070154836006015461105291906118a1565b90508060045461106291906118a1565b6004555050600801805460ff191660011790555050565b600081815260036020526040812054829060ff16151560011461109b57600080fd5b60008181526003602052604090206008015460ff16156110ba57600080fd5b600083815260036020818152604092839020835161014081018552815460ff808216151583526001600160a01b0361010092839004169483019490945260018301549582019590955260028201546060820152928101546080840152600481015460a084015260058101548216151560c0840152600681015460e0840152600781015493830193909352600883015416151561012082015261115b90611320565b949350505050565b6000546001600160a01b0316331461118d5760405162461bcd60e51b81526004016103ca90611825565b6001600160a01b0381166111f25760405162461bcd60e51b815260206004820152602660248201527f4f776e61626c653a206e6577206f776e657220697320746865207a65726f206160448201526564647265737360d01b60648201526084016103ca565b610947816113f1565b611203611627565b6112106102db8484610d29565b9392505050565b6001600160a01b03811660009081526005602052604081205461123b908390610d29565b92915050565b600061124c60025490565b82106112a45760405162461bcd60e51b815260206004820152602160248201527f546f6b656e56657374696e673a20696e646578206f7574206f6620626f756e646044820152607360f81b60648201526084016103ca565b600282815481106112b7576112b76118b8565b90600052602060002001549050919050565b604080516001600160a01b038416602482015260448082018490528251808303909101815260649091019091526020810180516001600160e01b031663a9059cbb60e01b17905261131b908490611441565b505050565b6040810151600090429081108061133e575061012083015115156001145b1561134c5750600092915050565b826080015183606001516113609190611889565b811061137b578261010001518360e0015161121091906118a1565b600083606001518261138d91906118a1565b60a085015190915060006113a182846118ce565b905060006113af83836118f0565b905060008760800151828960e001516113c891906118f0565b6113d291906118ce565b9050876101000151816113e591906118a1565b98975050505050505050565b600080546001600160a01b038381166001600160a01b0319831681178455604051919092169283917f8be0079c531659141344cd1fd0a4f28419497f9722a3daafe3b4186f6b6457e09190a35050565b6000611496826040518060400160405280602081526020017f5361666545524332303a206c6f772d6c6576656c2063616c6c206661696c6564815250856001600160a01b03166115139092919063ffffffff16565b80519091501561131b57808060200190518101906114b4919061190f565b61131b5760405162461bcd60e51b815260206004820152602a60248201527f5361666545524332303a204552433230206f7065726174696f6e20646964206e6044820152691bdd081cdd58d8d9595960b21b60648201526084016103ca565b606061115b8484600085856001600160a01b0385163b6115755760405162461bcd60e51b815260206004820152601d60248201527f416464726573733a2063616c6c20746f206e6f6e2d636f6e747261637400000060448201526064016103ca565b600080866001600160a01b03168587604051611591919061195c565b60006040518083038185875af1925050503d80600081146115ce576040519150601f19603f3d011682016040523d82523d6000602084013e6115d3565b606091505b50915091506115e38282866115ee565b979650505050505050565b606083156115fd575081611210565b82511561160d5782518084602001fd5b8160405162461bcd60e51b81526004016103ca9190611978565b60405180610140016040528060001515815260200160006001600160a01b031681526020016000815260200160008152602001600081526020016000815260200160001515815260200160008152602001600081526020016000151581525090565b80356001600160a01b03811681146116a057600080fd5b919050565b801515811461094757600080fd5b600080600080600080600060e0888a0312156116ce57600080fd5b6116d788611689565b96506020880135955060408801359450606088013593506080880135925060a0880135611703816116a5565b8092505060c0880135905092959891949750929550565b60006020828403121561172c57600080fd5b5035919050565b60006020828403121561174557600080fd5b61121082611689565b6000806040838503121561176157600080fd5b50508035926020909101359150565b8151151581526101408101602083015161179560208401826001600160a01b03169052565b5060408301516040830152606083015160608301526080830151608083015260a083015160a083015260c08301516117d160c084018215159052565b5060e083810151908301526101008084015190830152610120928301511515929091019190915290565b6000806040838503121561180e57600080fd5b61181783611689565b946020939093013593505050565b6020808252818101527f4f776e61626c653a2063616c6c6572206973206e6f7420746865206f776e6572604082015260600190565b60006020828403121561186c57600080fd5b5051919050565b634e487b7160e01b600052601160045260246000fd5b6000821982111561189c5761189c611873565b500190565b6000828210156118b3576118b3611873565b500390565b634e487b7160e01b600052603260045260246000fd5b6000826118eb57634e487b7160e01b600052601260045260246000fd5b500490565b600081600019048311821515161561190a5761190a611873565b500290565b60006020828403121561192157600080fd5b8151611210816116a5565b60005b8381101561194757818101518382015260200161192f565b83811115611956576000848401525b50505050565b6000825161196e81846020870161192c565b9190910192915050565b602081526000825180602084015261199781604085016020870161192c565b601f01601f1916919091016040019291505056fea26469706673582212207ae53f8b0550853100b20ba7c32750e065aca61614485f0107eb9ef9433bc97d64736f6c634300080e0033",
  "immutableReferences": {
    "802": [
      {
        "length": 32,
        "start": 360
      },
      {
        "length": 32,
        "start": 2336
      },
      {
        "length": 32,
        "start": 3046
      },
      {
        "length": 32,
        "start": 3470
      }
    ]
  },
  "source": "// SPDX-License-Identifier: Apache-2.0\npragma solidity 0.8.14;\n\nimport \"@openzeppelin/contracts/token/ERC20/IERC20.sol\";\nimport \"@openzeppelin/contracts/token/ERC20/utils/SafeERC20.sol\";\nimport \"@openzeppelin/contracts/security/ReentrancyGuard.sol\";\nimport \"@openzeppelin/contracts/access/Ownable.sol\";\n/**\n * @title RKVesting\n */\ncontract RKVesting is Ownable, ReentrancyGuard{\n    using SafeERC20 for IERC20;\n    struct VestingSchedule{\n        bool initialized;\n        // beneficiary of tokens after they are released\n        address  beneficiary;\n        // cliff period in seconds\n        uint256  cliff;\n        // start time of the vesting period\n        uint256  start;\n        // duration of the vesting period in seconds\n        uint256  duration;\n        // duration of a slice period for the vesting in seconds\n        uint256 slicePeriodSeconds;\n        // whether or not the vesting is revocable\n        bool  revocable;\n        // total amount of tokens to be released at the end of the vesting\n        uint256 amountTotal;\n        // amount of tokens released\n        uint256  released;\n        // whether or not the vesting has been revoked\n        bool revoked;\n    }\n\n    // address of the ERC20 token\n    IERC20 immutable private _token;\n\n    bytes32[] private vestingSchedulesIds;\n    mapping(bytes32 => VestingSchedule) private vestingSchedules;\n    uint256 private vestingSchedulesTotalAmount;\n    mapping(address => uint256) private holdersVestingCount;\n\n    event Released(uint256 amount);\n    event Revoked();\n\n    /**\n    * @dev Reverts if no vesting schedule matches the passed identifier.\n    */\n    modifier onlyIfVestingScheduleExists(bytes32 vestingScheduleId) {\n        require(vestingSchedules[vestingScheduleId].initialized == true);\n        _;\n    }\n\n    /**\n    * @dev Reverts if the vesting schedule does not exist or has been revoked.\n    */\n    modifier onlyIfVestingScheduleNotRevoked(bytes32 vestingScheduleId) {\n        require(vestingSchedules[vestingScheduleId].initialized == true);\n        require(vestingSchedules[vestingScheduleId].revoked == false);\n        _;\n    }\n\n    /**\n     * @dev Creates a vesting contract.\n     * @param token_ address of the ERC20 token contract\n     */\n    constructor(address token_) {\n        require(token_ != address(0x0));\n        _token = IERC20(token_);\n    }\n\n    receive() external payable {}\n\n    fallback() external payable {}\n\n    /**\n    * @dev Returns the number of vesting schedules associated to a beneficiary.\n    * @return the number of vesting schedules\n    */\n    function getVestingSchedulesCountByBeneficiary(address _beneficiary)\n    external\n    view\n    returns(uint256){\n        return holdersVestingCount[_beneficiary];\n    }\n\n    /**\n    * @dev Returns the vesting schedule id at the given index.\n    * @return the vesting id\n    */\n    function getVestingIdAtIndex(uint256 index)\n    external\n    view\n    returns(bytes32){\n        require(index < getVestingSchedulesCount(), \"TokenVesting: index out of bounds\");\n        return vestingSchedulesIds[index];\n    }\n\n    /**\n    * @notice Returns the vesting schedule information for a given holder and index.\n    * @return the vesting schedule structure information\n    */\n    function getVestingScheduleByAddressAndIndex(address holder, uint256 index)\n    external\n    view\n    returns(VestingSchedule memory){\n        return getVestingSchedule(computeVestingScheduleIdForAddressAndIndex(holder, index));\n    }\n\n\n    /**\n    * @notice Returns the total amount of vesting schedules.\n    * @return the total amount of vesting schedules\n    */\n    function getVestingSchedulesTotalAmount()\n    external\n    view\n    returns(uint256){\n        return vestingSchedulesTotalAmount;\n    }\n\n    /**\n    * @dev Returns the address of the ERC20 token managed by the vesting contract.\n    */\n    function getToken()\n    external\n    view\n    returns(address){\n        return address(_token);\n    }\n\n    /**\n    * @notice Creates a new vesting schedule for a beneficiary.\n    * @param _beneficiary address of the beneficiary to whom vested tokens are transferred\n    * @param _start start time of the vesting period\n    * @param _cliff duration in seconds of the cliff in which tokens will begin to vest\n    * @param _duration duration in seconds of the period in which the tokens will vest\n    * @param _slicePeriodSeconds duration of a slice period for the vesting in seconds\n    * @param _revocable whether the vesting is revocable or not\n    * @param _amount total amount of tokens to be released at the end of the vesting\n    */\n    function createVestingSchedule(\n        address _beneficiary,\n        uint256 _start,\n        uint256 _cliff,\n        uint256 _duration,\n        uint256 _slicePeriodSeconds,\n        bool _revocable,\n        uint256 _amount\n    )\n        public\n        onlyOwner{\n        require(\n            this.getWithdrawableAmount() >= _amount,\n            \"TokenVesting: cannot create vesting schedule because not sufficient tokens\"\n        );\n        require(_duration > 0, \"TokenVesting: duration must be > 0\");\n        require(_amount > 0, \"TokenVesting: amount must be > 0\");\n        require(_slicePeriodSeconds >= 1, \"TokenVesting: slicePeriodSeconds must be >= 1\");\n        bytes32 vestingScheduleId = this.computeNextVestingScheduleIdForHolder(_beneficiary);\n        uint256 cliff = _start + _cliff;\n        vestingSchedules[vestingScheduleId] = VestingSchedule(\n            true,\n            _beneficiary,\n            cliff,\n            _start,\n            _duration,\n            _slicePeriodSeconds,\n            _revocable,\n            _amount,\n            0,\n            false\n        );\n        vestingSchedulesTotalAmount = vestingSchedulesTotalAmount + _amount;\n        vestingSchedulesIds.push(vestingScheduleId);\n        uint256 currentVestingCount = holdersVestingCount[_beneficiary];\n        holdersVestingCount[_beneficiary] = currentVestingCount + 1;\n    }\n\n    /**\n    * @notice Revokes the vesting schedule for given identifier.\n    * @param vestingScheduleId the vesting schedule identifier\n    */\n    function revoke(bytes32 vestingScheduleId)\n        public\n        onlyOwner\n        onlyIfVestingScheduleNotRevoked(vestingScheduleId){\n        VestingSchedule storage vestingSchedule = vestingSchedules[vestingScheduleId];\n        require(vestingSchedule.revocable == true, \"TokenVesting: vesting is not revocable\");\n        uint256 vestedAmount = _computeReleasableAmount(vestingSchedule);\n        if(vestedAmount > 0){\n            release(vestingScheduleId, vestedAmount);\n        }\n        uint256 unreleased = vestingSchedule.amountTotal - vestingSchedule.released;\n        vestingSchedulesTotalAmount = vestingSchedulesTotalAmount - unreleased;\n        vestingSchedule.revoked = true;\n    }\n\n    /**\n    * @notice Withdraw the specified amount if possible.\n    * @param amount the amount to withdraw\n    */\n    function withdraw(uint256 amount)\n        public\n        onlyOwner{\n        require(this.getWithdrawableAmount() >= amount, \"TokenVesting: not enough withdrawable funds\");\n        _token.safeTransfer(owner(), amount);\n    }\n\n    /**\n    * @notice Release vested amount of tokens.\n    * @param vestingScheduleId the vesting schedule identifier\n    * @param amount the amount to release\n    */\n    function release(\n        bytes32 vestingScheduleId,\n        uint256 amount\n    )\n        public\n        nonReentrant\n        onlyIfVestingScheduleNotRevoked(vestingScheduleId){\n        VestingSchedule storage vestingSchedule = vestingSchedules[vestingScheduleId];\n        bool isBeneficiary = msg.sender == vestingSchedule.beneficiary;\n        bool isOwner = msg.sender == owner();\n        require(\n            isBeneficiary || isOwner,\n            \"TokenVesting: only beneficiary and owner can release vested tokens\"\n        );\n        uint256 vestedAmount = _computeReleasableAmount(vestingSchedule);\n        require(vestedAmount >= amount, \"TokenVesting: cannot release tokens, not enough vested tokens\");\n        vestingSchedule.released = vestingSchedule.released + amount;\n        address payable beneficiaryPayable = payable(vestingSchedule.beneficiary);\n        vestingSchedulesTotalAmount = vestingSchedulesTotalAmount - amount;\n        _token.safeTransfer(beneficiaryPayable, amount);\n    }\n\n    /**\n    * @dev Returns the number of vesting schedules managed by this contract.\n    * @return the number of vesting schedules\n    */\n    function getVestingSchedulesCount()\n        public\n        view\n        returns(uint256){\n        return vestingSchedulesIds.length;\n    }\n\n    /**\n    * @notice Computes the vested amount of tokens for the given vesting schedule identifier.\n    * @return the vested amount\n    */\n    function computeReleasableAmount(bytes32 vestingScheduleId)\n        public\n        onlyIfVestingScheduleNotRevoked(vestingScheduleId)\n        view\n        returns(uint256){\n        VestingSchedule storage vestingSchedule = vestingSchedules[vestingScheduleId];\n        return _computeReleasableAmount(vestingSchedule);\n    }\n\n    /**\n    * @notice Returns the vesting schedule information for a given identifier.\n    * @return the vesting schedule structure information\n    */\n    function getVestingSchedule(bytes32 vestingScheduleId)\n        public\n        view\n        returns(VestingSchedule memory){\n        return vestingSchedules[vestingScheduleId];\n    }\n\n    /**\n    * @dev Returns the amount of tokens that can be withdrawn by the owner.\n    * @return the amount of tokens\n    */\n    function getWithdrawableAmount()\n        public\n        view\n        returns(uint256){\n        return _token.balanceOf(address(this)) - vestingSchedulesTotalAmount;\n    }\n\n    /**\n    * @dev Computes the next vesting schedule identifier for a given holder address.\n    */\n    function computeNextVestingScheduleIdForHolder(address holder)\n        public\n        view\n        returns(bytes32){\n        return computeVestingScheduleIdForAddressAndIndex(holder, holdersVestingCount[holder]);\n    }\n\n    /**\n    * @dev Returns the last vesting schedule for a given holder address.\n    */\n    function getLastVestingScheduleForHolder(address holder)\n        public\n        view\n        returns(VestingSchedule memory){\n        return vestingSchedules[computeVestingScheduleIdForAddressAndIndex(holder, holdersVestingCount[holder] - 1)];\n    }\n\n    /**\n    * @dev Computes the vesting schedule identifier for an address and an index.\n    */\n    function computeVestingScheduleIdForAddressAndIndex(address holder, uint256 index)\n        public\n        pure\n        returns(bytes32){\n        return keccak256(abi.encodePacked(holder, index));\n    }\n\n    /**\n    * @dev Computes the releasable amount of tokens for a vesting schedule.\n    * @return the amount of releasable tokens\n    */\n    function _computeReleasableAmount(VestingSchedule memory vestingSchedule)\n    internal\n    view\n    returns(uint256){\n        uint256 currentTime = getCurrentTime();\n        if ((currentTime < vestingSchedule.cliff) || vestingSchedule.revoked == true) {\n            return 0;\n        } else if (currentTime >= vestingSchedule.start + vestingSchedule.duration) {\n            return vestingSchedule.amountTotal - vestingSchedule.released;\n        } else {\n            uint256 timeFromStart = currentTime - vestingSchedule.start;\n            uint secondsPerSlice = vestingSchedule.slicePeriodSeconds;\n            uint256 vestedSlicePeriods = timeFromStart/secondsPerSlice;\n            uint256 vestedSeconds = vestedSlicePeriods * secondsPerSlice;\n            uint256 vestedAmount = vestingSchedule.amountTotal * vestedSeconds/vestingSchedule.duration;\n            vestedAmount = vestedAmount - vestingSchedule.released;\n            return vestedAmount;\n        }\n    }\n\n    function getCurrentTime()\n        internal\n        virtual\n        view\n        returns(uint256){\n        return block.timestamp;\n    }\n\n}",
  "sourcePath": "/Users/user/Desktop/difx-rk/truffle/contracts/RKVesting.sol",
  "compiler": {
    "name": "solc",
    "version": "0.8.14+commit.80d49f37.Emscripten.clang"
  },
  "schemaVersion": "3.4.4",
  "updatedAt": "2022-06-11T13:54:55.961Z",
  "devdoc": {
    "kind": "dev",
    "methods": {
      "computeNextVestingScheduleIdForHolder(address)": {
        "details": "Computes the next vesting schedule identifier for a given holder address."
      },
      "computeReleasableAmount(bytes32)": {
        "returns": {
          "_0": "the vested amount"
        }
      },
      "computeVestingScheduleIdForAddressAndIndex(address,uint256)": {
        "details": "Computes the vesting schedule identifier for an address and an index."
      },
      "constructor": {
        "details": "Creates a vesting contract.",
        "params": {
          "token_": "address of the ERC20 token contract"
        }
      },
      "createVestingSchedule(address,uint256,uint256,uint256,uint256,bool,uint256)": {
        "params": {
          "_amount": "total amount of tokens to be released at the end of the vesting",
          "_beneficiary": "address of the beneficiary to whom vested tokens are transferred",
          "_cliff": "duration in seconds of the cliff in which tokens will begin to vest",
          "_duration": "duration in seconds of the period in which the tokens will vest",
          "_revocable": "whether the vesting is revocable or not",
          "_slicePeriodSeconds": "duration of a slice period for the vesting in seconds",
          "_start": "start time of the vesting period"
        }
      },
      "getLastVestingScheduleForHolder(address)": {
        "details": "Returns the last vesting schedule for a given holder address."
      },
      "getToken()": {
        "details": "Returns the address of the ERC20 token managed by the vesting contract."
      },
      "getVestingIdAtIndex(uint256)": {
        "details": "Returns the vesting schedule id at the given index.",
        "returns": {
          "_0": "the vesting id"
        }
      },
      "getVestingSchedule(bytes32)": {
        "returns": {
          "_0": "the vesting schedule structure information"
        }
      },
      "getVestingScheduleByAddressAndIndex(address,uint256)": {
        "returns": {
          "_0": "the vesting schedule structure information"
        }
      },
      "getVestingSchedulesCount()": {
        "details": "Returns the number of vesting schedules managed by this contract.",
        "returns": {
          "_0": "the number of vesting schedules"
        }
      },
      "getVestingSchedulesCountByBeneficiary(address)": {
        "details": "Returns the number of vesting schedules associated to a beneficiary.",
        "returns": {
          "_0": "the number of vesting schedules"
        }
      },
      "getVestingSchedulesTotalAmount()": {
        "returns": {
          "_0": "the total amount of vesting schedules"
        }
      },
      "getWithdrawableAmount()": {
        "details": "Returns the amount of tokens that can be withdrawn by the owner.",
        "returns": {
          "_0": "the amount of tokens"
        }
      },
      "owner()": {
        "details": "Returns the address of the current owner."
      },
      "release(bytes32,uint256)": {
        "params": {
          "amount": "the amount to release",
          "vestingScheduleId": "the vesting schedule identifier"
        }
      },
      "renounceOwnership()": {
        "details": "Leaves the contract without owner. It will not be possible to call `onlyOwner` functions anymore. Can only be called by the current owner. NOTE: Renouncing ownership will leave the contract without an owner, thereby removing any functionality that is only available to the owner."
      },
      "revoke(bytes32)": {
        "params": {
          "vestingScheduleId": "the vesting schedule identifier"
        }
      },
      "transferOwnership(address)": {
        "details": "Transfers ownership of the contract to a new account (`newOwner`). Can only be called by the current owner."
      },
      "withdraw(uint256)": {
        "params": {
          "amount": "the amount to withdraw"
        }
      }
    },
    "title": "RKVesting",
    "version": 1
  },
  "userdoc": {
    "kind": "user",
    "methods": {
      "computeReleasableAmount(bytes32)": {
        "notice": "Computes the vested amount of tokens for the given vesting schedule identifier."
      },
      "createVestingSchedule(address,uint256,uint256,uint256,uint256,bool,uint256)": {
        "notice": "Creates a new vesting schedule for a beneficiary."
      },
      "getVestingSchedule(bytes32)": {
        "notice": "Returns the vesting schedule information for a given identifier."
      },
      "getVestingScheduleByAddressAndIndex(address,uint256)": {
        "notice": "Returns the vesting schedule information for a given holder and index."
      },
      "getVestingSchedulesTotalAmount()": {
        "notice": "Returns the total amount of vesting schedules."
      },
      "release(bytes32,uint256)": {
        "notice": "Release vested amount of tokens."
      },
      "revoke(bytes32)": {
        "notice": "Revokes the vesting schedule for given identifier."
      },
      "withdraw(uint256)": {
        "notice": "Withdraw the specified amount if possible."
      }
    },
    "version": 1
  }
}